:08000000FCFF0220357900002D
:100400000000000000000001FFFFFFFFBE03FFFF30
:1004100008B5144B202818800BD002D8E0B108286A
:1004200005E0802818D0B0F5807F0AD0402818D188
:1004300012E0612041F270710622BDE8084002F02E
:100440004DBD062261204FF4966102F047FD064B38
:100450001A78064B1A7008BD6120BDE8084002F00A
:100460007FBD08BD1202FF1F0002FF1FFE01FF1F1C
:1004700008B5044B04491868402205F091F90020A2
:1004800008BD00BF0402FF1F007C0000074B084AA4
:100490001978117018B1022804D101F0AFBE054AD5
:1004A000127800E0FF221A70704700BFFE01FF1FA4
:1004B000F001FF1F0002FF1F024B1A78024B1A7057
:1004C000704700BFF001FF1FFE01FF1F30B502465D
:1004D00085B00C46B0B902238DF80C30154B1B6863
:1004E000197B8DF80D105B6801938023ADF80830FF
:1004F0004FF40063ADF80A3061238DF80E308DF8AB
:100500000F0001AA0020214602F002F9054668B159
:10051000022C05D0032C05D0012C07D1214602E086
:10052000042100E00521002201F060FF284605B00B
:1005300030BD00BF0402FF1F2DE9F0418E4E2DEDAE
:10054000028B3468077DA6B0002C40F0B98002F021
:1005500055FB804602F05EFB0546402002F0ECFAB7
:10056000864B18602046FFF783FFB0F5004F18BF99
:1005700001234FF000004FF0030118BF3360FFF775
:10058000A5FF7F4A1070002800F0F1807D4A9FEDA2
:100590007E8A10707D4802F045F97D4802F042F9EC
:1005A0007C4802F03FF9002000F09CFA7A4802F003
:1005B00039F97A4802F036F9794B186800F1604051
:1005C0008C2100F5803002F016FA764802F02AF904
:1005D000C5EB08000A2180B202F00DFA724802F061
:1005E00021F902F00BFB8A2102F005FA6F4802F0B4
:1005F00019F906A802F0F0FA8C2102F0FCF9752036
:10060000042102F039FC042202238DF80920002481
:1006100041F26F7240208DF80830ADF8143003922B
:10062000019402F089FA624B18601D46B0EE480A48
:1006300006A8002101F028FE9DED067ADFED5D7A27
:100640002A6867EE277ACDED067AFDEEE77A17EE97
:10065000903A03F2FF731353DFED577A0234402CC4
:1006600038EE278AE2D1002540F2527301A80393A5
:100670008DF8165006F0F4FA05238DF81C300F2380
:100680008DF81D304A4B8DF82E501B6809937C2342
:10069000ADF8303006A843F2432306950A948DF84E
:1006A0002F50089306F0DCFA0AE09DF81B309DF805
:1006B0001C206BB9062A0ED0832A01D107F0FCF862
:1006C000384606A9052201F0ABFE0028EDD116E060
:1006D000012B07D00EE02A4B38491878162202F079
:1006E00069F8EDE7DD2AEBD13268082AE8D1224A21
:1006F0001360E5E7384606A901F092FEE0E73368AB
:1007000013F0370F33D01E4C207801F09BFE2646A5
:1007100068B3307806A9402201F082FE044630B367
:10072000274B1D8805F48045ADB206A8214615B1BA
:1007300001F05AFDEDE700F021F9224B1A8806A8D6
:10074000214682B900F0BCFE0028E2D04FF4807050
:1007500000F074F90228DCD1094B1B4918781722E4
:1007600002F028F8D5E72A4600F0AAFED1E726B025
:10077000BDEC028BBDE8F0810C02FF1F0402FF1FDD
:100780000002FF1FFE01FF1F00000000407C000070
:10079000547C00006A7C00006D7C0000717C0000CD
:1007A0008006FF1F827C0000CF820000917C000049
:1007B0000802FF1F0000E044DB0F493EE97B000018
:1007C0002606FF1F1202FF1FA77C00007047013999
:1007D00011F8013F33B110F9012B5BB29A42F7D007
:1007E0000020704790F90020202A07DC03461846B5
:1007F000013390F90020202AF9D07047184670473D
:1008000010B5036893F90020202A07D01A46134632
:10081000013293F9001031F02004F8D11A46013367
:1008200092F900102029F9D0026092F90000D0F16D
:10083000010038BF002010BD08B5054801F0F2FFE7
:10084000044801F0EFFF0448BDE8084001F0EABFAA
:1008500050810000E07B0000638100002DE9F0473B
:10086000DFF8CC902C4E99F800204FF00C0808FBD4
:1008700002F2B31888B08246B5581F795C7901A896
:1008800020211B2204F0E8FFBAF1000F04D05445E8
:1008900024DD0C35013CFAE7204801F0C3FF99F84C
:1008A000003008FB0366B06801F0BCFF1C4801F093
:1008B000B9FF13E055F80C0C01F0B4FFB842024642
:1008C00030781FDB01A9012201F074FF55F8080CF4
:1008D00001F0A8FF134801F0A5FF013C0C35ACB1B5
:1008E000114E00213078422201F064FF0028E1D14E
:1008F0003078402141F26D0201F078FD0B4B012070
:100900001C6006E0BA1A01A992B2DDE7074B204647
:100910001C6008B0BDE8F087CC8000006281000058
:100920006681000063810000FE01FF1F1806FF1FA3
:100930002406FF1F10B5047D88B0204669460522B5
:1009400001F06EFDA8B19DF80330002BF5D0012B0E
:100950009DF8042008D1DD2AEFD1074B1868002844
:10096000EBD0FFF77BFFE8E72046694601F058FD32
:10097000E3E708B010BD00BF1806FF1F0A46034991
:1009800003460878194601F015BF00BF0002FF1F9B
:1009900007B5164801F046FF154801F043FF15481A
:1009A00001F040FF02F036F90A2102F024F8124863
:1009B00001F038FF02F022F90A2102F01CF80F487A
:1009C00001F030FF01A802F007F90C2102F013F842
:1009D0000B4801F027FF01980C2102F00CF80948A0
:1009E00001F020FF03B05DF804FB00BF7E81000032
:1009F0006981000095810000CF820000A281000083
:100A0000C98C0000438C0000034B1B680246C021C8
:100A1000D86B01F00DBF00BF0402FF1F7FB5064871
:100A200001F000FF01A8FFF7EFFF01A801F0FAFEB7
:100A300007B05DF804FB00BFB4810000B0F5807F13
:100A400010B503460CD0B0F5006F204A11D11288C2
:100A5000002A38D11E4A1288002A34D11D4A0AE0E1
:100A60001C4B1B887BBB194B1B8863BBFFF7D0FC5F
:100A700002E04FF400731380154B1B88B3F5807FA1
:100A800003D12020FFF7C4FC09E0124B1A88B2F50D
:100A9000006F04D14FF480521A8001F0AFFBFFF7D2
:100AA000BDFFFFF7C9FE0C4801F0BCFE0B4B1868F8
:100AB000213001F0B7FE0024094B20461C70FFF7DF
:100AC000CDFE204610BD022010BD00BF1002FF1F4A
:100AD0001202FF1F2606FF1FC68100000402FF1F2F
:100AE0002406FF1F10B52B4B1A78110604462FD48D
:100AF0001A7892072ED41A7850072DD41A789106B6
:100B00002CD41A781B78D20704D513F0400F224951
:100B1000224B1AE05B0623D4214B1A78D00721D44C
:100B20001A78910720D41A7852071FD41A78100720
:100B30001ED41A461B78D9061CD413789B061BD4E6
:100B40001378184913F0800F174B18BF194614E09B
:100B5000164912E0164910E016490EE016490CE05D
:100B600016490AE0164908E0164906E0164904E06D
:100B7000164902E0164900E0164924B9084601F07A
:100B800051FE204610BD204601F094FF001BC0B26C
:100B900010BD00BF00F00740947F00009B7F000065
:100BA00001F00740A87F0000F87C0000507E0000A4
:100BB0003C7E0000F7890000D87C0000EE89000030
:100BC0002B8000004C80000043800000F07D00007E
:100BD000497E00003080000009281BD8DFE800F0C3
:100BE0000507090B0D0F111315170B4810E00B48E3
:100BF0000EE00B480CE00B480AE00B4808E00B48FD
:100C000006E00B4804E00B4802E00B4800E00B480C
:100C100001F008BE704700BFDE810000E2810000E5
:100C2000E7810000EC810000F1810000F681000006
:100C3000FA81000000820000068200000C820000A1
:100C400038B506F08BFD002405462046FFF7C4FFAB
:100C5000094801F0E7FD2046002101F07BFEA54296
:100C600002D1064801F0DEFD0548013401F0DAFD4D
:100C70000A2CEAD138BD00BFE197000012820000C3
:100C80003A8300002DE9F0430C468DB01546082844
:100C900000F2CF83DFE810F0090041000402CD0329
:100CA000CD031F029D03B403D90109B9084605E02D
:100CB000042907D10122AD4B00201A70FFF7CEFDA9
:100CC0000446C4E3052908BF0222F4D0062908BF60
:100CD0000322F0D0072908BF0422ECD0092908BF5D
:100CE0000522E8D00A2908BF0622E4D00E2908BF51
:100CF0000722E0D00F2908BF0822DCD0102908BF46
:100D00000922D8D0112908BF0A22D4D015294FF0C2
:100D10000000D5D1954B1870D0E72029019236D02C
:100D200011D80A293DD006D871B3012940F081833A
:100D3000FFF72EFE7DE30F293DD0C0F07A83112905
:100D400040F2C88075E33D2900F064810BD8262964
:100D500024D0272940F06D83104601F073FEC0B205
:100D600006F054FD65E3422900F01E81432907D0B7
:100D70003E2940F05E837E4B40F2AA221A8003E0B7
:100D80007C4801F04FFDFEE706F096FD51E37A48FE
:100D900001F048FD0020FFF7A5FE4AE3FFF750FFF2
:100DA00047E302A803F008FB00240470734801F035
:100DB00039FD02A836E392F900300BB9102528E07E
:100DC000104601F022FE6E4B186001A8FFF718FDD7
:100DD000019B1A78002AF1D002F0DF0252B24C2AAD
:100DE00001D1042102E0572A04D10221654A0133CE
:100DF000116005E0422A04D1624A012111600B44CE
:100E00000193019890F90030002BD7D001F01AFE21
:100E100005465D4801F006FD20238DF808308DF869
:100E20000930002D40F30583554E0C21306801F048
:100E3000E2FD564801F0F6FC0DF10A074FF01008EC
:100E4000DFF84091D9F80030022B05F1FF3509D0C9
:100E5000042B0CD0012B40F0EC8233681C7821214C
:100E6000204608E033681C882221204603E03368CE
:100E70001C682421204601F0BEFDD9F800303268FC
:100E8000022B1A443260C3EB080804D0042B0CBFB9
:100E90001822002200E008223B449F420CD024FA92
:100EA00002F1A1F12000C0B25A2894BFC9B22E218C
:100EB00007F8011B083AF0E715B1B8F1000FBFD1F0
:100EC0000D221A700A225A7000229A7002A801F0AC
:100ED000A9FCA6E792F90030002B00F0AA82104688
:100EE00001F093FD112C05460CBF2948294801F05B
:100EF00099FC01A8FFF784FC019B1A780AB92648DF
:100F00008DE202F0DF0252B24C2A244E01D10422BB
:100F100002E0572A03D102223260013304E0422A60
:100F200003D1012232601344019301A8FFF768FC4A
:100F3000019801F06AFD074601A8FFF761FC112C3A
:100F400006D1019890F9003013B101F07BFD00E06B
:100F5000012032680028D2DD022A05D0042A1FD0E1
:100F6000012A1ED12F701CE02F801AE02406FF1FDB
:100F7000FEFF02201C8200002B8200003F82000046
:100F80002C06FF1FF401FF1F648200007582000021
:100F90007A8200007F82000085820000F801FF1F36
:100FA0002F6001381544D5E7104601F02EFD0546A7
:100FB00001A8FFF725FC019801F027FD064601A8CE
:100FC000FFF71EFC019801F03DFD0E28044601D8F4
:100FD000944824E29448954F01F024FC20460021D7
:100FE00001F0B8FC924801F01DFC0C21284601F0EC
:100FF00002FD904801F016FC30460C2101F0FBFC8C
:10100000012322463046294600243B6004F0C8FBF9
:101010003C601CE2104601F015FDC0B2012801D968
:101020008548FCE101A8FFF7EBFB05238DF80C30A8
:1010300000244B2301980294049301F0E6FCADF8E0
:101040001C0002A805F00CFE01E2012919D00FD303
:10105000052940F0EE81794801F0E4FB784B1868EF
:101060003C2390FBF3F0042101F074FC7548D6E1B9
:10107000754801F0D7FB754B1A8842F480421A80FC
:10108000D7E1724C2388B3F5805F01D07048C6E188
:10109000704801F0C7FB238843F400532380C8E164
:1010A00049B1032940F0C5816B4B10461C6801F023
:1010B000C9FC2081BDE1694D2B88042B05D168480E
:1010C00001F0B0FB10232B80C1E1604B0846198072
:1010D000FFF79EF9BBE11D2900F2AB81DFE811F0BB
:1010E0001E006300300045008200A901A901A9018A
:1010F000A901A901A901A901A901A901A901A901A0
:10110000A901D400A901A901A90146014601A9012B
:10111000A901A901A901A9015A0172014E4B1E683A
:101120000024504BC4EBC4001844294601F0ACFC29
:1011300008B9347379E101340C2CF2D14A486EE1DC
:1011400092F90030372B05D1434B1B685A6842F0A7
:10115000010206E0382B06D13F4B1B685A6822F08B
:1011600001025A6061E1414859E13B4B1E6800248D
:101170003F4B04EB84001844294601F085FC68B914
:10118000736823F0060373602CB1012C40F04D818D
:1011900043F002031FE043F004031CE00134032C7E
:1011A000E6D134483BE12C4B1E68002432482946E6
:1011B00000EB840001F068FC78B97368012C23F01F
:1011C0001803736005D0022C40F02F8143F0100308
:1011D00001E043F00803736027E10134032CE5D1FB
:1011E00026481CE11C4B1F6800262548294600EBB9
:1011F000C60001F049FC044678B17B68012E23F05B
:1012000060037B6005D0022E40F00F8143F0200385
:1012100001E043F040037B6007E10136032EE4D197
:101220001848FFE08D820000B88200001C06FF1FF6
:10123000C1820000D6820000DB82000054830000DF
:101240007406FF1F5D830000E78200002606FF1F73
:101250001F8300003D8300000402FF1F1002FF1FD8
:1012600062830000B07F0000688400006E8300008D
:101270001C80000081840000847D000094840000B4
:10128000B4800000AA840000734C744801F0CAFACC
:10129000734801F0C7FA2368187B0B2897BF714B7E
:1012A0007148C0EBC000C01801F0BCFA6F4801F0F3
:1012B000B9FA23685B68DD074CBF6D486D4801F0E3
:1012C000B1FA6D4801F0AEFA23685B68980705D45F
:1012D00013F0040F0CBF0220002000E00120674B38
:1012E00000EB8000184401F09DFA654801F09AFA7D
:1012F000236864485B68D90654BFC3F3C003022364
:1013000000EB830001F08EFA5F4801F08BFA23684E
:101310005B685A0605D413F0200F0CBF0025022588
:1013200000E00125594801F07DFA594800EBC5005D
:1013300001F078FA4D4801F075FA002D79D0554842
:1013400001F070FA2368002193F8360001F002FBE7
:10135000514801F067FA514801F064FA236800210E
:1013600093F8370001F0F6FA4B4858E0104601F0C8
:1013700069FBC0B2632803D8002808BF012000E041
:101380006320354B1B68152C0CBF83F8360083F89F
:1013900037004AE0424801F045FA424801F042FA7B
:1013A0000121002004F0CEFAA02101F0D3FA3E483A
:1013B00001F038FA0020014604F0C4FAA02101F03F
:1013C000C9FA36E000204FF0FF3104F0BBFA37488D
:1013D00025E0022909D004292BD11F4B186811469A
:1013E0002130142204F0DCF923E0FFF717FBFFF7AC
:1013F00023FA2F4801F016FA174B186821300EE037
:10140000062916D12B48114601F03EFB0446C0B117
:101410002948294601F038FB044660B1274801F00D
:1014200001FA06E001F0FEF911E000200421FFF7C7
:101430004DF800240BE0084B1B685A8922F040024B
:1014400004E0054B1B685A8942F040025A8120464D
:101450000DB0BDE8F08300BF0402FF1F86830000CB
:101460009F830000B07F0000A78300003A83000044
:10147000B0830000B2830000B48300001C80000031
:101480008A840000847D0000BC830000CB830000C0
:10149000B4800000D9830000E5830000E9830000E8
:1014A000F4830000098400001A8400002B840000EB
:1014B000C6810000468400004D8400005584000071
:1014C0002DE9F74F0446164689464FF00008B9F15A
:1014D000000F00F0F28023787A4D082B01D07F2B8B
:1014E0000AD1794B1A7822B1013A78481A7001F082
:1014F00099F900232B70DBE01B2B04D05B2B05D16B
:101500002A781B2A02D12B700134D1E02A785B2A79
:1015100047D1A3F14102032A43D8DFE802F01010BB
:101520000902694B1A78002A00F0C280013ABEE035
:10153000654B1A78FD2A00F2BB800132B7E0644D9A
:10154000DFF8BCA128680AEB002001F0BDFA23787F
:10155000412B07462B6806D10BB9032300E0013B62
:101560002B605C4805E00133032BC8BF00235A48B9
:101570002B6001F057F927B1584801F053F9013FAA
:10158000F9E7554801F04EF928680AEB002001F010
:1015900049F928680AEB002001F096FA4A4B1870C6
:1015A00086E00A2B00F08480002B00F08180DFF8B9
:1015B00020A1454FDAF800103A78DFF844B102EB89
:1015C00001210BF8013023780D2B65D10A23304619
:1015D0000BF80130FEF75AFFDAF800303A7840494C
:1015E0000BEB032B3F4B1B780C2043430132C818F5
:1015F000D2B251F8038043790BEB0201002001F8CD
:10160000010C36B938490988002936D0490505D575
:1016100033E0022E02D13549098871B352B35846DE
:10162000ABB1D8F800100193FFF7D1F8019B024647
:10163000013B48B12E48019201F0F4F898F80800F7
:1016400098F80910019A09E008F10C08E7E7294920
:10165000FFF7BDF8024668B104200921FFF712FB2D
:1016600010B9254801F0DEF83EB91F4B1888FEF787
:10167000CFFE02E0214801F0D5F8FEF71DFFDAF8B1
:101680000010134B0131002203293A70D4BF1960B6
:101690001A604FF0010801E001323A7000232B700C
:1016A0003B78FF2B04F1010402D1074BFE221A7094
:1016B00009F1FF391FFA89F909E7404603B0BDE88F
:1016C000F08F00BF1402FF1F2806FF1FAD7F000030
:1016D0002006FF1FC38400006481000078820000A0
:1016E000CC8000002406FF1F1202FF1F2606FF1FEA
:1016F0003A830000C7840000CF840000CB84000040
:101700001502FF1F2DE9F84F3D4D3E4E29683388E5
:101710003D4F3E48DFF80891DFF808C1DFF8088147
:1017200081F001019B0811F0010F29604FF02002A8
:101730004FEA63042BD0364B3A604FF0000AC3F8EF
:1017400000A0DFF8E8A0DCF800C04FF0FF3BCAF8CB
:1017500000B04FF0010AC3F800A00260D8F80030D2
:10176000D9F8000004337CB130F8022BA2F5FF4217
:101770007F3A23F8042C3CF8022BA2F5FF427F3A73
:1017800023F8022C013CEDE720233B6021E00260BE
:10179000DCF800C03A60D9F8007062001744944445
:1017A000D8F8002002EB4303224604337AB137F81D
:1017B000024BA4F5FF447F3C23F8044C3CF8024B59
:1017C000A4F5FF447F3C23F8024C013AEDE72023C7
:1017D0000360012912D10F4B32881878002100F0E4
:1017E000E9FF30B10C4801F01DF803232B60BDE880
:1017F000F88F0A48BDE8F84F01F014B8BDE8F88F3B
:101800006406FF1F6806FF1FC8F00F40C4F00F40BA
:10181000287103403406FF1FD48B0000298200008A
:101820004C06FF1F5006FF1F6C06FF1F2071034070
:101830002DE9F84F04460F461D46164622B1022AEE
:1018400000F0C08000225FE0C1798379624A43EAF8
:10185000012322F8153090F90030002B437830DA5C
:10186000822B22F8156012D008D8212B1AD0812B98
:1018700040F0AB80594B5A4958780FE0832B0AD07F
:10188000842B40F0A280554B5649587806E0534BC4
:101890005549587802E0514B54495878022200F0DB
:1018A00089FF0CE04279037943EA0223504A13602E
:1018B0005B1003F10A017520C9B200F08BFF3246BC
:1018C0001DE0202B0AD0222B12D0012B7DD1827853
:1018D000C17842EA0121474A118005E00279417945
:1018E00042EA0121424A1160434A5355062206E06A
:1018F0000379427943EA02223D4B1A600322082F02
:1019000066D9083FBFB20834334931F815308A46EA
:10191000002B5DD038494A5D012A8B4602D0202A2F
:101920001BD03BE0334B1B88B3F5807F09D1227875
:10193000324BD2F1010238BF00221A607520022119
:101940002AE0B3F5007F29D12378627843EA0222A6
:101950002B4B75201A8003211EE0254A2948166862
:10196000022296FBF2F6072B34BF98464FF0070889
:10197000C6EBC6021044474534BFB946C146C8F15C
:101980000703184421464A4603F00AFFC14505D320
:1019900006F114017520C9B200F01CFF3AF81520B9
:1019A0000D4B974208D3FF220BF80520002223F8A5
:1019B00015200320BDE8F88FD71B23F815700620EB
:1019C000BDE8F88F0020BDE8F88F0420BDE8F88F4F
:1019D0001046BDE8F88F00BF3006FF1F4906FF1F05
:1019E000138A0000198A0000158A0000178A000077
:1019F0003806FF1F6A06FF1FFC01FF1F7006FF1F4E
:101A00005C06FF1F3C06FF1F2DE9F04F9BB07523BE
:101A10008DF837304FF44073ADF830304FF4405309
:101A20000024ADF82A30ADF828304FF4E0730126D9
:101A3000022521468DF83400ADF82E3008AA4F4B10
:101A4000099305208DF833608DF83250089400F02A
:101A50005FFE4B4BBDF82AB018704A4B1B6814222E
:101A600002FB00302BFA06F750F8083C38461B689A
:101A7000009301F061F88246384601F05DF8424A71
:101A800081461660032060214FF4A27205F0C2F86F
:101A90003E4A116841F060011160516941F06001F6
:101AA00051613B4915912921ADF8621040218DF813
:101AB0003F1009218DF83E101A2104224FF003082F
:101AC0008DF84C100EA833498DF83C2001921091EE
:101AD0008DF864808DF86060CDF85C9016978DF875
:101AE0004B408DF83D508DF84D600E94ADF844405C
:101AF0008DF84A8005F0B4F82821ADF8621008216D
:101B00008DF83E1010998DF84D4041F080510EA88F
:101B100010918DF864808DF860501594CDF85CA01C
:101B200005F09EF8019A8DF8112003A81A4A059233
:101B30008DF810508DF81E500394ADF81C5005F030
:101B40008FF8164A14609B22059203A82A22ADF84A
:101B50001C2003948DF81E6005F082F8104A009B4B
:101B6000A2F800B00F4A13600F4BC3F800A00F4B50
:101B7000C3F800901BB0BDE8F08F00BFB11B0000A0
:101B80003406FF1F7C06FF1F30079042C0F00F4055
:101B9000051700002D40D0407F4F120028710340F0
:101BA0006806FF1F6C06FF1F4C06FF1F5006FF1F35
:101BB00070B51A4D2C681CBB194B1E6803F54723E2
:101BC00003F6A47340221A60164B22461878214669
:101BD00000F0F0FD01232B60134B1C60134B1A68BF
:101BE0000132B2F5FA7F01DA1A6070BD10481C604C
:101BF00000F018FEF0438021BDE8704000F0AABE5E
:101C0000012C0AD10B4B40221A60064B0021187898
:101C10000A4600F0CFFD00232B6070BD4406FF1F75
:101C2000247103403406FF1F287103405806FF1F2C
:101C3000F68B0000C4F00F402DE9F04FB04D067D4B
:101C40002B78A9B0002B40F0A980AE4BD3F80080D0
:101C500008F1210000F038FFAB4B44001A681ABFAE
:101C6000A71CFFB2042799463AB9384600F064FF32
:101C70000323C9F8000007704370D9F800301CB185
:101C8000023308F1200102E09C70DC7009E011F8D9
:101C9000012F02332AB103F8022C002203F8012C91
:101CA000F5E7002401274FF002084FF0750921469F
:101CB000DFF89CA28DF81C4002AA05208DF81A407E
:101CC000ADF81240ADF81040ADF81670CDF808A090
:101CD0008DF81D708DF81E808DF81F9000F018FD96
:101CE0004023ADF830304FF48073ADF828304FF416
:101CF0008063ADF82A30102321468346ADF82E309C
:101D000008AA4FF4007305208DF834400994089414
:101D1000ADF82C308DF837908DF833708DF8327027
:101D200000F0F6FC794BADF82E401870214608AA59
:101D300005208DF833408DF837400894ADF82840E1
:101D4000ADF82A408DF8328000F0E2FC704B8DF83F
:101D500032401870214608AA0520ADF82A40ADF897
:101D6000284085F800B08DF83470ADF82E80CDF89D
:101D700020A08DF835708DF836808DF8379000F002
:101D8000C7FC04463846FFF73FFE6C7006E09DF83E
:101D90002320012A0AD0752A00F05981304608A96B
:101DA000052200F03DFB0028F1D1B9E19DF8243077
:101DB000C72B37D006D8032B48D0C62B38D0022BE0
:101DC0004DD13CE0C92B14D019D3CA2B03D0CB2B57
:101DD00045D1504895E1504C238843B14F4B1A7878
:101DE0004F4B00201A70FEF713FB002323804D4851
:101DF00087E11046002101F08FFF4B4881E1464CFE
:101E0000238843B1454B1A78454B00201A70FEF7E2
:101E1000FFFA00232380002101200A4601F07CFF05
:101E200042486EE10220002101F076FF404868E15F
:101E3000002102200A4601F06FFF3E4861E13E4B5F
:101E40001B680BB13D485CE13D485AE13D4800F05C
:101E5000E9FC3D4B8221188800F0CDFD9EE7132B55
:101E600040F2A880A3F114003849C3001A1A8C1854
:101E70008F5CA27894F801E0E478120442EA0E2222
:101E80003A4342EA0462B2F5613F0C4623D8B2F508
:101E9000E13F22D8B2F5614F21D8B2F5164F20D8D4
:101EA000B2F5964F1FD8B2F5615F1ED8B2F5165F36
:101EB0001DD8B2F5965F1CD8B2F5166F1BD8B2F5D7
:101EC000966F1AD8B2F5167F44D8B2F5967F94BFB4
:101ED000002201223FE00C223DE00B223BE00A22DF
:101EE00039E0092237E0082235E0072233E00622F4
:101EF00031E005222FE004222DE003222BE000BF79
:101F00004906FF1F0402FF1F6006FF1F4806FF1F50
:101F10005406FF1FFF8B00002606FF1F0002FF1F55
:101F2000FE01FF1F0F8C00001F8C0000338C00008F
:101F3000478C0000588C00007006FF1F698C000061
:101F4000748C00007E8C00005C06FF1F3C06FF1FA7
:101F50003118000002221F1A2744B9797F79B1F1A4
:101F6000070EDEF1000151EB0E01012F05D0022F0B
:101F700005D141F0020189B201E041F004011B1AD0
:101F80001C442379012B04D0022B04D141F0100111
:101F900001E041F0080100287FF400AF824B1B688C
:101FA0005C681A7324F01F04214359600421FEF772
:101FB0008DFAF3E6092B7FF6F1AE0A3B09D17A4A96
:101FC00011680A7B48680C2A88BF4FF4964705D8E9
:101FD00001E000200A22754951F822707449DA00A4
:101FE000C3EB020E01EB0E0401F80E704FEA172E40
:101FF0003F0CA7700027E770C7074CBF07270827CB
:10200000A77184F801E08707C3EB02040C4401D5F3
:10201000022703E010F0040718BF012767710407C7
:1020200003D5D01A0844012405E010F0100004D0B4
:10203000D01A08440224047102E0D41A0C4420711E
:10204000D31A28781944072200F0B4FBA6E63046DC
:102050000DF125019DF8242000F0E2F99DF82530CE
:10206000FD2B45D0FE2B2ED0FC2B7FF497AE0DF12F
:10207000260102220DF1060003F092FB02A80AA934
:10208000022203F08DFBBDF80830012B03D1494833
:1020900000F0C8FB10E0022B0ED1474800F0C2FB55
:1020A000BDF80630012B454B08BF0421187818BF36
:1020B0000821002200F09AF9BDF80630012B0CBF70
:1020C0003F4840481DE0404800F0ACFB01219DF82E
:1020D000260000F03FFC3D4800F0A4FB02F076FB38
:1020E0003B4B1A6822F002021A6002F077FB55E6B9
:1020F000384800F097FB9DF82600012100F02AFCEB
:10210000324800F08FFB49E6334E338813F4C04F5A
:1021100024D05B040BD4207808A9802200F080F939
:102120002E4C207800F08EF90028EDD139E02C4DAE
:1021300000212878402200F03DFB40B108A9402250
:10214000207800F06DF908A90246287823E0287865
:10215000402141F2750200F049F922E008A98022ED
:10216000207800F05DF9054608A92A46207800F09D
:1021700021FB338808A8294602227BB9FFF7A0F982
:102180000028CDD04FF40060FEF758FC0228C7D1DC
:1021900020781449162200F00DFBC1E7FFF790F9F3
:1021A000BEE729B0BDE8F08F0402FF1F9C8B000042
:1021B0003C06FF1F878C00008D8C00003406FF1F3B
:1021C000958C00009E8C0000AE8C0000438C0000BB
:1021D0006406FF1FBD8C00002606FF1F4806FF1F78
:1021E0000002FF1F9F8A00000A4603490346087841
:1021F000194600F0DFBA00BF4806FF1F024B1A78ED
:10220000024B1A70704700BF4806FF1FFE01FF1FF8
:1022100001294FF0120303800CBF014801487047A9
:102220006C8B0000428B0000012903D176230380D0
:10223000024870474B23038001487047CC8A000056
:10224000498A0000052810B513D80C4B012A53F811
:10225000204004BF0A4B53F82040237833B90328A9
:1022600009D1084B186803780B8010BD0B802046FD
:1022700010BD002010BD184610BD00BF808B0000AF
:10228000548B00006006FF1FDFED437A20EE270A23
:1022900030B5B5EEC00AF1EE10FAFDEEC07A04D505
:1022A00017EE903A013B07EE903AF8EEE77A9FED91
:1022B0003B7A30EE670A20EE070ABCEEC07A17EED2
:1022C000103AC3F3080307EE103AF8EE477A03F129
:1022D0008004C4F3080470EE677A71B3304A9FED4E
:1022E000316A02EB8405D5ED004A02EB830502EB6F
:1022F000840292ED015AD5ED006A95ED017A35EE32
:10230000645AF1EE666A36EEC74A75EE055AD4EEA7
:10231000065AB0EE004A96EE847AB0EE084A26EEEF
:10232000477A66EE866AA5EE047AA7EEA57AE7EE0E
:10233000876AE7EEA64AC1ED004A60B3184ADFEDAE
:10234000196A02EB830102EB8303D1ED004A93ED9E
:10235000015A02EB840191ED006A91ED017A35EEAC
:10236000645A36EE074A75EE055AD4EE265AB0EE98
:10237000004AA6EE047AB0EE084A26EEC77A66EE68
:10238000266AA5EE047AA7EEA57AE7EE876AE7EE5D
:10239000A64AC0ED004A30BD83F9223E0000004449
:1023A000FC8C0000DB0F493C13B50138C3B2064872
:1023B000006803EB830400EB8404207C00936468D2
:1023C0000323A04702B010BD7C06FF1F08B5054BD4
:1023D000187000EB8000800000F0AEFB024B18602C
:1023E00008BD00BF7806FF1F7C06FF1FFF2837B51A
:1023F0000D460FD00949431EDBB2096803EB830485
:1024000001EB84041146207C009364682A46022371
:10241000A04700E0002003B030BD00BF7C06FF1FD6
:1024200013B50138C3B20648006803EB830400EB20
:102430008404207C009364680423A04702B010BD8C
:102440007C06FF1F084A13B50138C3B2126803EBBC
:10245000830102EB81020021107C00935468052364
:102460000A46A04702B010BD7C06FF1F2DE9F843C5
:10247000058A4768AA4238BF154604460E463DB352
:10248000C3687A199A42426015D3C7EB03081FFA52
:1024900088F80368C8EB05094B44436002F09EF9D5
:1024A0008EB139464246304603F07AF906EB080011
:1024B00021684A4605E002F091F926B130463946D6
:1024C0002A4603F06DF902F081F9238A5B1B23820F
:1024D00002F084F92846BDE8F88300002DE9F843AE
:1024E000DFF868809DF820701D4607EB8707D8F855
:1024F0000030BF003B44894616469C6802F066F9EE
:10250000052D0AD0062D0AD0042D16D120464946A5
:102510003246BDE8F843FFF7A9BF258A10E0012E37
:1025200003D1D8F800301F44FC6844B12368A3608D
:1025300063600023258A238202E0002500E025460F
:1025400002F04CF92846BDE8F88300BF7C06FF1F67
:10255000F8B51446028A94420E460546416808D8EA
:1025600043B1121BC3681144994203D3C38AC91AE9
:1025700000E0144694B18EB1EF680B199F4209D860
:102580007F1ABFB23A46304603F00AF9F0192968BB
:10259000E21B01E03046224603F002F92046F8BD76
:1025A0002DE9F041044615460F4602F00FF9218A45
:1025B000628AE38A88182844984202DD5D1AAD1ABF
:1025C000ADB22A44D4F808806282E26808EB0506BE
:1025D0009642A66006D3F31A2668A3609E1BAE1B24
:1025E000B6B200E02E4602F0F9F8404639463246CF
:1025F00003F0D6F8B54204D02068B919AA1B03F03D
:10260000CFF802F0E3F8638AA28AAB4206D1238AAC
:102610002B441A4400232282A38202E02A44A2828D
:102620005B1B638202F0DAF82846BDE8F081000007
:1026300070B50C4B1E780C4B1B6800221433D4B2BF
:10264000B4420DD253F8105C854206D113F8045CF5
:102650008D4202D1601CC0B270BD01321433EEE76E
:10266000002070BD7806FF1F7C06FF1F2DE9F74F85
:1026700082461046894690469B46FFF7D9FF0146A1
:1026800008B100203FE0FFF7D3FF07460028F8D04D
:102690006FF01303142616FB00361C4B1B681E44F8
:1026A000BAF80030A3B1584600F046FA0446B060CC
:1026B00070B1BAF800300193184600F03DFA019B62
:1026C0000028DED0C51820606060A060E560E3826D
:1026D000BAF8023093B1584600F02EFA0446F06082
:1026E00060B1BAF80250284600F026FA0028C8D097
:1026F000431920606060A060E360E582C6F8048052
:1027000086F81090384603B0BDE8F08F7C06FF1FB6
:10271000032807B506D0052812D0A8B9104600F046
:1027200021FE12E01389ADF804300023ADF8063025
:102730001368074A197801A81823FFF797FF04E0E8
:10274000104601F001FA00E0002003B05DF804FB40
:10275000DD24000070B5027843789A4204460E46A4
:1027600021D1857811482946FFF762FFE0B16FF06B
:102770001303142212FB00300D4B1B681844E3783E
:102780008068032B04D1C28A038AD01A80B270BD3C
:1027900021463246FFF704FF0421044668B200F0E8
:1027A0006BFB204670BD002070BD00BFDD24000023
:1027B0007C06FF1F30B528B90846BDE830401146F9
:1027C000FFF7C8BFFF2803D0BDE83040FFF7ECBDDE
:1027D000002030BD07B5002370B18DF800308DF8B2
:1027E00001308DF8020001238DF8041068460521A0
:1027F0008DF80330FFF7AEFF03B05DF804FB10B5B2
:10280000002304469AB20133E01810F8010C0028A6
:10281000F8D12AB108462146BDE81040FFF7CABFEB
:10282000104610BD014B1978FFF7E9BFFE01FF1FED
:102830002DE9F0418F0604D52023137001F0F70134
:1028400001324E0705D5002803DA2D2313704042CC
:10285000013200243D4B26463D4F00283BD08342A9
:10286000354606F1010625D957F82530D4B9642B31
:102870000CD004D8012B13D00A2B0CD0EFE7B3F502
:102880007A7F03D042F21075AB42E8D101F0030524
:10289000012D02DCE3E78D07E1D04D06DFD501E035
:1028A0004D0601D5302502E00D07D8D5202515703D
:1028B0000132D4E7B0FBF3FC002B0CF130085FFAD7
:1028C0008CFC82F8008003FB1C0018BF012457F821
:1028D00025300132C0E707EB860633B134B130252D
:1028E000335802F8015B0430F7E7E4B90C071346EC
:1028F00003D520200132187015E0480610D501F0EC
:102900000300012806D0022807D130201070507033
:102910000332987030231370013230231370013268
:102920003023137001320B0606D513460D2003F831
:10293000020B0A2050701A4601F0100101F0FF034B
:1029400001B913701046BDE8F08100BF00CA9A3B80
:10295000009500001FB56A46FFF76AFF6846FFF75B
:1029600061FF05B05DF804FB2DE9F0418C0602D54E
:102970002023137001320B0706D51346302403F8C9
:10298000024B782454701A4601F0100601F04008FA
:102990005FFA81FC01F00701042928BF04214900E6
:1029A000F6B25FFA88F817460B46013BDBB2FF2B05
:1029B00013D09D0020FA05F505F00F0505F1300450
:1029C000392C07D9B8F1000F02D005F1370401E026
:1029D00005F1570407F8014BE7E71CF0800F02EB05
:1029E000010004D00D2353540A234370023006B96A
:1029F0000670BDE8F0811FB56A46FFF7B5FF68466F
:102A0000FFF710FF05B05DF804FB0246013092F9B4
:102A10000030202BF9D0013A002012F8013F59B2C2
:102A20002F290EDDD9B2A1F13003DBB2092B88BF0B
:102A3000A1F157034FEA001088BF03F00F031843BA
:102A4000EBE7704710B50022014610F8013BA3F1F7
:102A50003004092C04D9ABB12D2B08BF0122F3E7B8
:102A60000139002011F8013FA3F13004092C06D8E8
:102A70005BB2303B03EB400303EBC000F2E712B163
:102A8000404210BD184610BD013810F8013F3BB15F
:102A900011F9012B5BB29342F7D008DD012070479A
:102AA00091F90000003018BF0120404270474FF0FC
:102AB000FF30704703460A7803F8012B11F9012B08
:102AC0000AB11846F6E770470023C2560AB101332F
:102AD000FBE718467047000013B5114B00221A801F
:102AE000104B114A1960114B147819600278A242F8
:102AF00002D092B10430F9E7428811440C4A914265
:102B00008ABF0C4A19601A601B680DF107029342D4
:102B100003D8552203F8012BF7E702B010BD00BF20
:102B20008406FF1F8006FF1FFF01FF1F8806FF1F8F
:102B3000FBFF0220FCFF0220F8B5104A104B116881
:102B40001C880C4414F0030F17460E4A1CBF24F0D7
:102B50000304043412681E4623189A4205460AD913
:102B60002A462046002102F077FE3B68E31A1D4406
:102B700035802046F8BD0020F8BD00BF8006FF1F4D
:102B80008406FF1F8806FF1FF8B5104A104B054644
:102B90001C8810680444481E044217461E4602D092
:102BA0004B421C400C440B4A126863199A420AD9E2
:102BB0002A462046002102F04FFE3B68E31A1D44DE
:102BC00035802046F8BD0020F8BD00BF8006FF1FFD
:102BD0008406FF1F8806FF1F064B10B51A681346B0
:102BE000991A13F8014B552CFAD0034AD21A0260F5
:102BF000084610BD8806FF1FFCFF0220034B186823
:102C0000034B1B68C01A80B2704700BF8806FF1FC5
:102C10008006FF1F044B1868044B1B68C01A044B46
:102C20001B88C01A80B270478806FF1F8006FF1FEE
:102C30008406FF1F2DE9F047534B544F9146002265
:102C40001A603A60524A1278824698460C78002CF4
:102C500049D094423ED10B4693F901405E1AF6B238
:102C60005D1C0CB12B46F7E706EB4600C0000430B4
:102C7000FFF762FF03463860F04328442546427858
:102C800032B35146D1F800E0BEF1000F1ED09EF8DD
:102C900000C0624518D14A685A600A89C3F800E04A
:102CA0001A810AB10134E4B2D1F80CE00A69C3F820
:102CB0000CE01A61097D5975BEF1000F00D10AB10F
:102CC0000135EDB2183301E01831DBE70130D6E70A
:102CD0001A600AE04B1C1946013391F900000028E4
:102CE000F9D11946B2E7254626463B68002B40D06D
:102CF00045B305EB45008000043080B2FFF71CFFB0
:102D0000224BC8F800001B681A68AAB1DA6832B111
:102D1000013204BF0022DA60DA68426002E0196919
:102D200009B14160012142680AB10122427209B130
:102D300040F80C3B1833E7E705EB4505A0EB8500B1
:102D4000C8F8000004EB0900C0B2FFF73FFB84B1F4
:102D50003C6823686BB123894BB1032001212246D3
:102D6000FFF7D6FC08B1207501E0FF232375183466
:102D7000EFE7002001F01EFD064B00221A6002F072
:102D800043FC3046BDE8F0879406FF1F8C06FF1F0A
:102D9000FF01FF1F9006FF1F1F4B73B51C681834FF
:102DA00054F8183CA4F118069BB314F8033C13F034
:102DB0000D0FF4D001F00AFD54F8083C1BB914F8CB
:102DC000033CDB071ED414F8023CA3B100258DF8A8
:102DD00000508DF8015054F8182C12788DF802200C
:102DE0002846694605228DF803508DF80430FFF718
:102DF000E1FC04F8025C14F8033C13F00A0308BF7A
:102E000004F8033C01F0EAFC54F8143C30469847BF
:102E1000C5E702B070BD00BF8C06FF1F38B50D4B73
:102E20001C68054601F0D2FC04F1180353F8182C75
:102E300072B113F8031C11F00D0F07D092F90020A6
:102E4000AA4203D001F0CAFC012038BD1833EDE7D7
:102E5000104638BD8C06FF1F064B1B681A683AB136
:102E600092F90020824201D1587D70471833F5E76E
:102E7000802070478C06FF1F38B5154B1C682368EF
:102E800023B393F9003083421ED1B1B9114B1D68B1
:102E90009DB12B688BB19C420DD101F097FC236949
:102EA0001BB10D4A126813446B6000236375BDE8C3
:102EB000384001F093BC0C35EBE74A0702D5637D3F
:102EC0001B0703D4617538BD1834D8E738BD00BF7F
:102ED0008C06FF1F9406FF1F9006FF1FF8B51D4BC1
:102EE0001C680D4617468CB31B4B1E68336853B3E2
:102EF00093F90030834224D12368FBB19E421BD159
:102F000001F064FC737D23F002037375277237B9F7
:102F100035613DB9657201F061FC0120F8BD002DFD
:102F200008BF01250D4B1B681D44012365606372BA
:102F300001F054FC0220F8BD0C34DDE76FF0010015
:102F4000F8BD1836D2E74FF0FF30F8BD6FF0020041
:102F5000F8BD00BF9406FF1F8C06FF1F9006FF1FE1
:102F600038B5144B1D6815B3134B1C682368DBB1CF
:102F700093F90030834215D12B6883B19C420CD168
:102F800001F024FC00232B726B72637D43F002037B
:102F9000637501F023FC012038BD0C35ECE76FF0C0
:102FA000010038BD1834E1E74FF0FF3038BD6FF055
:102FB000020038BD9406FF1F8C06FF1F154A164BF2
:102FC00011681B68013110B5104611600BB30C334A
:102FD00053F80C2CEAB113F8031C0029F7D004684D
:102FE00053F8081C8C42F2D1517D8C0706D4090796
:102FF0005CBF0421517513F8041C917512692AB144
:1030000053F8081C0A4443F8082CE0E703F8032CA3
:10301000DDE710BD9006FF1F9406FF1F37B590F83F
:1030200025300546B3B1028A8A4213D800248DF8B0
:10303000023001238DF803302046DD236946052246
:103040008DF800408DF801408DF80430FFF7B2FB99
:1030500085F8254003B030BD70B591F8263013F0E7
:1030600001020C4605D0098AA38BCB1A23820023C8
:10307000A38394F82460B30651D4258A45B926F079
:10308000400684F8246003F019FB2046294642E0FC
:103090006368197852B3E26859198A4204D8D21A7F
:1030A00092B2002A3FD000E02A46E18AB5EB510FE8
:1030B00006D9A91A132903DDB2EB550F88BF5208B0
:1030C00046F04006194684F8246003F01BFB636851
:1030D000E26803449342636024BF2368636005464B
:1030E00014212046FFF79AFFA58370BD03F0A0FAD4
:1030F00094F82430E26843F0400384F82430636895
:1031000001339342636024BF23686360238A013BD9
:10311000238220461421BDE87040FFF77FBFBDE841
:10312000704003F0CBBA70BD2DE9F04798460646D3
:103130000F4615469DF8204001F048FBA8F1020318
:103140000A2B00F2F180DFE813F00E007F000B0085
:103150006500DD00EF00EF00EF00EF00A200A2002D
:103160004FF0000995E0734B1B6804EB840403EBFC
:103170008403F8049C6800D404B9DC68002D47D0AF
:10318000E90717D594F826309A070FD5E28A180771
:10319000236A48BF5208D90544BF02F1FF3292B2F8
:1031A00062833046A16803F081FB08E0304603F0FB
:1031B00023FB04E0AA0702D5304603F09BFB6B0714
:1031C00012D528040CD594F8243023F02002590697
:1031D00084F8242016D430462146FFF73DFF11E045
:1031E000304603F0DBFA0DE02A070BD52B0406D599
:1031F00094F8243043F0200384F8243002E0304671
:1032000003F0E6FA6D0644BF07F07F0784F82570E7
:10321000278C8AE0474B1B6804EB840403EB84048F
:1032200048F28002A468236A1A400AB1278B7CE026
:1032300094F8263003F01E03022B03D130462146BA
:1032400003F034FB278A70E03A4B1B6804EB8404DC
:1032500003EB8404E46837B9E28A238AD31AAB42C9
:1032600063DB9FB261E001F0B9FA39462A46204695
:10327000FFF796F9074601F0A9FA94F8243013F005
:10328000600F52D130462146FFF7E6FE4DE04FF089
:103290000109284B1B6804EB840403EB8404A46835
:1032A00094F8263003F01E03022B04D13046214649
:1032B000002203F0FBFAB9F1000F0CD001F08EFAF6
:1032C0002046B8F10C04634239462A466341BDE802
:1032D000F047FFF73DB92A4620463946FFF7C6F8C2
:1032E00094F826301A0723D5238BDB0720D42368D4
:1032F000E28A616803EB5202914234BF626063600C
:10330000BDE8F0870B4B24B21B6804EB840403EB8D
:1033100084040DB1E36800E0A3681A689A6000278E
:103320005A601F821F8300E0002701F057FA3846D9
:10333000BDE8F0877C06FF1F38B505462820FFF75B
:10334000FBFB044608B9002038BD2846FFF7F4FB14
:1033500020600028F7D04319A0606060E360E58238
:10336000204638BD2DE9F84304460F462E48217A01
:10337000FFF75EF90146054610B17B0705D44DE025
:10338000FFF756F9054600284AD06FF013031426BC
:1033900016FB0536254BDFF89C801B681E4417F092
:1033A000020F214B736007D0E08894F80890FFF774
:1033B000C3FF48F82900F06017F0010F1C4F06D03A
:1033C000A088FFF7B9FF237AB06047F82300237A7B
:1033D00058F8233043B122681A62217A154BE27AF9
:1033E00053F8213083F82620227A114B57F82220F7
:1033F0006AB1A17A82F82510227A53F82210226845
:103400000A62217AE27A53F8213083F82620237A5F
:103410003374207A214603F081FA01E0BDE8F88395
:103420002846BDE8F88300BF293100007C06FF1F55
:103430009806FF1FB006FF1F38B5234B53F82140F5
:1034400094F82620E38A12F0020F1ED01507208A76
:10345000A5684CBF5A081A4610442082206AC0054D
:10346000E068154444BF02F1FF3292B2854228BFA2
:10347000C3EB0503A56028BFA3600846A16803F05D
:1034800015FA238B0133238313E0228A93420BD94D
:10349000A368013222821870A368E2680133934264
:1034A000A36024BF2368A360226A48F2800313400C
:1034B00043B994F8250028B140B20421BDE8384052
:1034C000FFF7DABC38BD00BF9806FF1F024B53F868
:1034D0002010FFF7C1BD00BFB006FF1F40B18369D8
:1034E00093F82D20501C83F82D0003EB42035984E0
:1034F000704711F0010F30B500F1020408D01346F7
:10350000057823F8025B407845EA002515801A46C5
:1035100011F0020F04F1020008D01346257823F8B9
:10352000025B647845EA042515801A464B0705D5E9
:1035300003781380417843EA0123138030BD0000F3
:103540002DE9F8439846089B064693F82C9044488A
:1035500050F82900302404FB0804E08B00287BD1BC
:103560008A4234BF17460F462284E783DA7D012A58
:1035700001D1678304E0A28B974238BF3A46628349
:10358000DA7D658B012A05D130462946424602F094
:1035900031FA16E0DB681E60089B99685A684B6830
:1035A00043F080002F4B4FEA054E0EEA030303431E
:1035B00013604B6883F040034B608B6883F04003DB
:1035C0008B6020692946FFF789FF48EA8919A660C0
:1035D000E28B638B9A4206D923693BB19B6993F8CE
:1035E0002D30012B02D9E08BBDE8F883484608A9AD
:1035F00002F032FD0028F6D1089B7F1B2E44DA7DB5
:10360000A58BBFB2AF4238BF3D46012A05D1304637
:103610002946424602F0EEF916E0DB681E60089B80
:1036200099685A684B6843F080000E4B4FEA054E8C
:103630000EEA0303034313604B6883F040034B60BF
:103640008B6883F040038B6020692946FFF746FFB3
:10365000638B2B446383BBE70020BDE8F88300BF86
:10366000D806FF1F0000FF032DE9F04F87B080460A
:1036700089460DF11600109900921F46FEF7D4FD01
:103680004FF0000C04466546012394F800B0BDF8E5
:103690001620CBEB020292B2ADF8162002926278AD
:1036A000042A0ED0052A20D0022A4AD1B8F1000FF0
:1036B00043D06279424514BF0025012508BF00238D
:1036C0003FE0002D3DD0B9F1FF0F02D0A2784A456E
:1036D00037D1009AFF2A04D0E278DDF800A05245E5
:1036E0002ED1002F36D002252BE055B34FB3BCF1BD
:1036F0000E0F04DD1948FFF795F838462BE0AE1E93
:10370000724272413E46316891B17AB9887894F834
:1037100002A080EA0A00400608D14879097941EA06
:103720000021B088884206D2B18004E00836EAE77A
:103730000AB134600122944403E00125434600E0CD
:10374000032502995C4400299FD1002B0CBF384609
:10375000002000E0204607B0BDE8F08F3295000061
:1037600037B5836993F829300546BBB1028A8A428E
:1037700014D800248DF8023001238DF80330204640
:10378000DD23694605228DF804308DF800408DF860
:103790000140FFF70FF8AB6983F8294003B030BD53
:1037A000F7B50B4604461249807851F82210277964
:1037B00000F07F0606EB460501EB051546EA82168A
:1037C000E1786279009520F07F00084347EA022201
:1037D000F1B202F039FDE3780BB9112303E095F85B
:1037E000263043F0010385F82B3003B0F0BD00BF55
:1037F000D806FF1F7FB5054616461C46BBB10DF126
:103800000A0001F0CDFF721CD2B2002075238DF8A2
:10381000082001A905328DF804008DF805008DF807
:1038200006408DF807308DF80950FEF7C3FF04B04D
:1038300070BD0000134B73B553F8213000F07F00CA
:1038400000EB400503EB051500242E69009440EAC7
:103850008111C9B2FF202246234602F0F5FC85F80B
:103860002B40EC8385F82D401EB133683482B36061
:103870007360EB6823B100221A821A689A605A605A
:1038800002B070BDD806FF1FF0B50228C3B00546D0
:103890000E4617461C4607D11F4B0122185D0094A7
:1038A0000023FFF7E1FE35E002A800214FF480720B
:1038B00001F0D2FF15B1012D13D02AE0164B31468D
:1038C000185D0094FF2202ABFFF7CEFE083502AB75
:1038D0002B4453F8083CE3B198782146FFF7AAFF40
:1038E000F4E70D4B3146185D00943A4602ABFFF702
:1038F000BBFE08B1002501E028460BE0083502AB0D
:103900002B4453F8080C20B100212246FFF748FF52
:10391000F4E7002043B0F0BDD406FF1FF0B591B02E
:103920000C4610A904AB41F8343D0646174602F098
:1039300093FBA8B9A56995F82B3043F0400385F8AF
:103940002B306068E168039C0094091A89B2B9427F
:1039500028BF39460A4606F03F03FFF7F1FD00E0B5
:10396000002011B0F0BD00002DE9F04190B01C46E0
:1039700080460F4615469DF8586000F027FFA31EAD
:10398000042B00F2D180DFE813F0050044009B0017
:103990003B00BE00694B05F0040436B21B6806EB21
:1039A0008606A4B203EB860664B1F1688B6993F8CE
:1039B0002B30580600F1B8800B68CA8A4B600A8227
:1039C00040467AE02A0708D5F3689B6993F82B20D4
:1039D00022F0400283F82B20A9E0FB044CBFF368DF
:1039E000B3686C0608D59A6992F82B10C80744BFD3
:1039F00007F07F0782F829709B6993F82B4096E0C7
:103A00004E4B1B6806EB860603EB8606B3681C8AE2
:103A10008DE04A4B1B6806EB860603EB8606F668CC
:103A20001EBB10A904AB41F8343D404602F014FB24
:103A3000B0B918F03F030AD14FEA9818404A52F83B
:103A4000281021B1C8798A7942EA002200E02A468A
:103A50000399009138462946FFF772FD044666E057
:103A60003848FEF7DFFE344661E0B36993F82B4037
:103A700014F001045BD077B9F48A328AA41AAC42FC
:103A800054DBDB8C5905A4B251D5404631462A4659
:103A9000FFF744FF4BE000F0A1FE2A4639463046CE
:103AA000FEF77EFD044600F091FEB36993F82B30DB
:103AB0005A063CD4404631462246FFF72FFFCDE759
:103AC0001E4B1B6806EB860603EB86063946B66876
:103AD0002A463046FEF7CAFCB36993F82B305B07E1
:103AE000044626D500F072FEB36993F82B2022F02D
:103AF000040283F82B20B36993F82A0001F038FF01
:103B00000028F8D013E00D4B36B21B6806EB860692
:103B100003EB86060DB1F36800E0B3681A689A609B
:103B200000245A601C8202E0002400E03C4600F0C1
:103B300055FE204610B0BDE8F08100BF7C06FF1F97
:103B4000C806FF1F559500002DE9F047067D817CD2
:103B50003A4C3B4A54F826A0B701FFB205461C2355
:103B600008303943FEF782FDAB7C8146A046FBB1AD
:103B700003EB43030AEB0314EA892B8AA383D306DE
:103B800044BF2023E384500603D5E38C43F4007341
:103B9000E384110603D5E38C43F48073E384D305F7
:103BA00003D5E38C43F48063E3846B68636012E0C5
:103BB000A87D013000EB40000001FEF7BDFF40236F
:103BC0008383EB7D48F82600044680F82830294698
:103BD000304602F04BFC6FF01303142212FB093243
:103BE000184B1B681A44D368236113B19C61AB89DD
:103BF0002383AB7C3B4384F82A30AB7C8BB1EB7CDA
:103C00007BB158F82600E18C03EB430400EB04146D
:103C10003B4384F82A30AB7C84F82C302B8AA38376
:103C2000E1849368E3601BB19C61EB7D84F82830EC
:103C30002B6823604846BDE8F08700BFD806FF1F09
:103C4000693900007C06FF1F2DE9F84FDDF828C018
:103C50000F4616462F491A469CF82C30302451F84E
:103C600023B060430BEB0005EC8CA10521D5EC687B
:103C7000B5F81C80A268D4F80C90DCF810C002EBF8
:103C8000080AA28AC4F808A0CA4523BF2168A16017
:103C90004FF0000A02F1010AA4F814A0BCF1000FD1
:103CA00007D0A1688844C84528BFD4F80080CCF864
:103CB00000805BF8004014B9EB6833B910E0384677
:103CC0003146A047072823D1F6E795F8280018B118
:103CD00040B20421FFF7D0F8EA8CEB68920502D5D8
:103CE0000020BDE8F88F95F82B2002F0040171B98F
:103CF000D88A198A411AB14205DB1846394632463C
:103D0000FEF74EFCECE742F0040285F82B20012080
:103D1000BDE8F88FD806FF1F2DE9F0450446C3B073
:103D20008A461646002502AF00214FF480723846BD
:103D300001F092FD00965046FF21EAB23B46FFF7A4
:103D400093FC98B34FF0000857F8080050B374B9CB
:103D5000BAF1000F04D180783146FFF76BFD1EE009
:103D600007EB080332469988FFF71AFD17E0114B5D
:103D7000827853F8261002F07F0202EB420201EB38
:103D80000213012C93F82B200BBF22F0010222F02A
:103D9000020242F0020242F0010283F82B2008F1F5
:103DA0000808D1E70135022D01D0BCE7012043B05E
:103DB000BDE8F085D806FF1F2DE9F04F013885B02A
:103DC0000F4690461E4693F82C50062800F2B28209
:103DD000DFE810F07F022E01850207008E02A002AC
:103DE000A602914B53F82530302707FB0837FB8B91
:103DF0003D691BBB002D00F09D822C8A74B16A685E
:103E0000EB689A4202D3E98A521A6A60686800969F
:103E1000191A89B2A14228BF214687E0AB6993F8FD
:103E20002B2022F0400283F82B207B68002B00F02F
:103E300081827C83FC8387F82D40ADE07C8B9C42A3
:103E4000C0F0AE80002D7BD0298A002978D0AA69E5
:103E500092F82D40508C012C04F1FF3482F82D4053
:103E6000C0EB0100C8BFB2F824E0A969C8BFA2F83E
:103E700022E080B2288291F82D2001EB420E0EF153
:103E8000220E00242AB13EF802CD6444013AA4B2C5
:103E9000F8E7A04235D150BB97F82B2012F0300F35
:103EA00010D0BA8BB3FBF2F102FB11339BB24BB9CA
:103EB000F47D012C40F0428201464246334601F037
:103EC00099FD0120FA8B6B681344EA686B6093429A
:103ED00002D3EA8A9B1A6B600023FB8350BBAB6959
:103EE00093F82B2022F0400283F82B2022E0CB8C89
:103EF000DC051FD5E98AFA830844288200966868A1
:103F000014E06A68E96813448B426B6002D3EA8A62
:103F10009B1A6B606B68C91A001B89B288424FF00C
:103F20000002B8BF81B2FA83184600960A4643469B
:103F3000FFF706FBAB692846198BFFF711FCF9E187
:103F4000BA8BB3FBF2F102FB113292B2F2B93A8CA6
:103F50009A4203D197F82B30980617D5F37D012BA1
:103F600006D1002001464246334601F043FD0DE0F4
:103F7000B36871685A6842F088020A605A6882F031
:103F800040025A609A6882F040029A607B6800247E
:103F9000FC83002B00F0CE8197F82A009847EBE1D4
:103FA0001C1BBA8BA4B2944228BF14469DB1AA69C7
:103FB00092F82D30518C012B03F1FF3382F82D3014
:103FC0002B8AC4BF908C50845B1A2B82AB69284625
:103FD000198BFFF7C5FBF37DB868012B7B8B06D1EE
:103FE000184421464246334601F004FD14E0F268CD
:103FF00003441360B2687168536843F080000B4B50
:104000002604334003430B60536883F0400353603E
:10401000936883F04003936021462846FFF75EFAD9
:104020007B8B1C447C8385E1D806FF1F0000FF03C7
:104030000B78DFF840B323F080045BF825804FF065
:104040000009012CA8F81E90DA4676D0022C00F068
:10405000DC80002C40F029814B78092B64D8DFE804
:1040600003F059636363633F056354428B78C878F8
:1040700091F8079043EA00208B7943EA092900F47C
:104080007F43B3F5007F12D007D8B3F5807F20D1EE
:1040900003A82946FEF7BCF80DE0B3F5407F0ED02B
:1040A000B3F5C06F15D10096AC480A210FE003A804
:1040B0002946FEF7B9F8BDF80C10009607E0C0B22B
:1040C00003A92A46FEF7BEF80028F4D134E14A4697
:1040D00026E0D8F80040002C00F02E81781C29E062
:1040E0008B78B3755CE09E4C8978615500202A4638
:1040F000FFF712FE10B1002363551DE1E81E5AF8C8
:104100002530C0B2B91C012246E0954800962844EB
:10411000012104E09348009600EB450002210A4685
:104120000023FFF70DFA27E1D8F80040002C00F03B
:1041300003810846B18A0022B4E091F801A0BAF1E7
:104140000A0F01F102002DD0BAF10B0F03D0BAF122
:10415000000F51D142E0824B5B5D002B00F0EC8000
:10416000032103AAFFF7C5F99DF80E10FF222B4685
:104170004846FFF789FB20469DF80E109DF80C205D
:104180002B46FFF781FB002840F0D680681F5BF8C4
:104190002530C0B203A9042293F92830FFF72AFB87
:1041A0000324E9E06E4B5B5D002B00F0C58002212B
:1041B00003AAFFF79EF902209DF80C104A462B46F1
:1041C000FFF762FB002800F0B780214622460096E8
:1041D00003304B46FFF7B4F94C46CDE0604B5B5DD6
:1041E000002B00F0A980022100965F480A46534642
:1041F000FFF7A6F95446BFE0D8F80040002C00F0C5
:104200009B8008464A46B18A4CE091F80190B9F18A
:10421000010F40D8881C03AA2146FFF76AF9504BCA
:10422000BDF80C005B5D13B9002840F08580302399
:1042300000F01F0203FB0282B9F1010F92F82B304C
:1042400018D1190776D523F0080382F82B30D8F857
:104250000030002B6ED004ACC0B204F8050D01F0A4
:1042600043FB5AF8253020461E68002104222B46C5
:10427000B0473BE003F0080202F0FF03009622B1D2
:1042800002213A480A46002302E0022136480A4643
:10429000FFF756F94EE0D8F80040002C4CD0084605
:1042A000032208212B46A04720E0D8F800C0BCF12B
:1042B000000F41D02E4C13F0800F18BF44F825108A
:1042C00008462B46B18A0022E047002344F82530F7
:1042D0000CE09A8A1AB900934046022304E0B28A9D
:1042E0000096404639460123FFF7AEFC044643E002
:1042F0009B7D4BB11F4B53F82530A5F1360193F947
:104300002800C9B2FEF766FA002001462A46FFF7E8
:1043100003FD0FE0174BA5F1380153F8253004E0F9
:10432000144B53F82530A5F13A0193F92800C9B28E
:10433000FEF750FA00241FE004241DE0B368716802
:104340005A6842F088020A605A6882F040025A6055
:104350009A6882F040029A60B3E500BF2895000099
:10436000D406FF1FD006FF1F649500006295000071
:10437000C806FF1FD806FF1F204605B0BDE8F08F16
:10438000054B53F82230302202FB003090F82B30DE
:10439000194380F82B107047D806FF1F044B53F8C1
:1043A0002130302202FB003090F82C00704700BF13
:1043B000D806FF1F01F044B9F8B51D4B1D4D1E680E
:1043C0001423B6FBF3F6B6FBF5F4024600212046B3
:1043D000FEF72EFA442141706121817005FB1466BD
:1043E00079214FF461652023B6FBF5F4C1700246D4
:1043F0007321037043710171063220460021FEF7DC
:1044000017FA05FB14663C253A27B6FBF5F402467D
:104410000770402120460132FEF70AFA0246077073
:10442000402105FB14600132BDE8F840FEF700BAF8
:104430009006FF1F8051010008B56C20FEF7EEFCCE
:1044400018B9BDE8084003F0A1B808BD044B1B78BB
:10445000044B1B78044B1A6801321A60704700BF86
:1044600004A0064007A00640E40AFF1F044B1B7887
:10447000044B1B78044B5A6801325A60704700BFE6
:1044800004B0064007B00640E40AFF1F044B1B7847
:10449000044B1B78044B9A6801329A60704700BF46
:1044A00004C0064007C00640E40AFF1F044B1B7807
:1044B000044B1B78044BDA680132DA60704700BFA6
:1044C00004D0064007D00640E40AFF1F044B1B78C7
:1044D000044B1B78044B1A6901321A61704700BF04
:1044E00004A00E4007A00E40E40AFF1F836803F0FB
:1044F0000C0310B50C2B3ED8DFE803F02C3D3D3DFE
:104500000B3D3D3D1B3D3D3D0700A2B34FF6FF7304
:104510001EE003689C064FEA111106D5080504D574
:104520006FEA01516FEA11511DE022B340F6FF73AB
:104530000EE003689B064FEA911106D58C0504D561
:104540006FEA81516FEA91510DE0A2B140F2FF3361
:1045500099420DE0036898064FEA112106D50B0633
:1045600004D561F0FF0189B21AB904E01AB1FF293C
:1045700001D0013189B2084610BD704770477047BD
:10458000704770477047704770477047044B48F258
:1045900001021A80034B49F676021A80704700BF69
:1045A00002200540FEFF022000200521FEF744BF47
:1045B00000200421FEF740BF00200321FEF73CBF8E
:1045C00000200221FEF738BF00200121FEF734BF92
:1045D00000200146FEF730BF9A4203D84B6843F4EF
:1045E00080630DE0B0F1804FC3EB020203D14B6852
:1045F00043F480630EE09A4204D84B6843F40063AE
:104600004B6010E0B0F1004FC3EB020205D14B68E4
:1046100043F400634B601046704748689A4240F488
:104620004060486005D80B6843F001030B60002030
:104630007047D01A704700002DE9F047089F0468C2
:104640003E8834F00104C6EB0303054688469146D4
:104650001FFA83FA11D11748FEF7E4F828688C2175
:10466000FEF7C9F920200146FEF78EFA286001689E
:1046700041F001010446016000E0046009EB0A0218
:10468000A26002F5805222F47F6222F00F028023A2
:10469000E260404663602146099B3246FFF79CFF7B
:1046A00038606368301A43EA004060602046BDE825
:1046B000F08700BFE097000048B10B6BDB690B612E
:1046C00003F5805323F47F6323F00F034B618B6B5F
:1046D00043F4004343F08003CB60054B0120D3F843
:1046E000B01100FA02F20A43C3F8B021704700BFCC
:1046F00000100A400E4B1A5C520102F1804202F592
:10470000104270B50B4DD38A55F820409BB29C42A5
:104710002E460D8802D3ED1A2C4405E02C44A4B299
:104720000C80D28BD21A14440C8046F8203070BD15
:104730005C9800004007FF1F10F00C02054B06D0EC
:1047400002074CBF1122012243F82120012243F825
:1047500021207047F407FF1F41B1032803D9A0F1BE
:104760001A03032B02D840F020007047092809D013
:104770000E280DD0052811D1094B01221A60002204
:10478000084B0AE0084B01221A600022074B04E0A4
:10479000054B01221A60064B00221A60704700BFC9
:1047A0003007904204C004402807904204A004400F
:1047B00028A00440034B01221A60034B07221A6011
:1047C000704700BF0006904200000A4072B6024BDC
:1047D0001A6801321A607047B807FF1F034A13684E
:1047E000013B136003B962B6704700BFB807FF1FF3
:1047F00008B5064B4FF000721A60FFF7E7FFFEF7AF
:10480000DDFBBDE80840FFF7E9BF00BF04ED00E0B5
:10481000084B0122824010B51A60074B53F8204024
:1048200034B1FFF7D3FFA047BDE81040FFF7D6BF74
:1048300010BD00BF24800040F006FF1F0F20FFF7CF
:10484000E7BF0E20FFF7E4BF0D20FFF7E1BF0C200C
:10485000FFF7DEBF0B20FFF7DBBF0A20FFF7D8BF53
:104860000920FFF7D5BF0820FFF7D2BF0720FFF7C9
:10487000CFBF0620FFF7CCBF0520FFF7C9BF04203C
:10488000FFF7C6BF0320FFF7C3BF0220FFF7C0BF7B
:104890000120FFF7BDBF0020FFF7BABF70B5037955
:1048A0000446D0070D461646DBB220D4E2781A4003
:1048B00091061CD51F4BE0795B5D1840052D11D882
:1048C000DFE805F0030507090B0D002108E00121D1
:1048D00006E0022104E0032102E0042100E00521BA
:1048E000FEF7AAFD2379DBB21A0748BFE279B007C9
:1048F00007D4E27822F03F02134202D0E8B2FEF77A
:10490000E5FDE378590613D52279520610D523F038
:104910004003E370FFF75AFF074B012202FA05F547
:104920001A6822EA0502BDE870401A60FFF756BF18
:1049300070BD00BF980AFF1FD00AFF1F054B064835
:104940001B78C3F340121B0648BF42F00202042149
:10495000FFF7A4BF0BA00E4000A00E40054B064879
:104960001B78C3F340121B0648BF42F0020203212A
:10497000FFF794BF0BD0064000D00640054B064819
:104980001B78C3F340121B0648BF42F0020202210B
:10499000FFF784BF0BC0064000C00640054B064829
:1049A0001B78C3F340121B0648BF42F002020121EC
:1049B000FFF774BF0BB0064000B00640054B064839
:1049C0001B78C3F340121B0648BF42F002020021CD
:1049D000FFF764BF0BA0064000A00640F8B50F4CDF
:1049E0000F4606460125FFF7F1FE2368BD4023EA86
:1049F00005032360FFF7F2FEF8B2FEF767FD2768B4
:104A00003D4209D13D43FFF7E1FE2560FFF7E6FE99
:104A1000F37843F04003F370F8BD00BFD00AFF1FE6
:104A200001480421FFF7DABF00A00E40014803212E
:104A3000FFF7D4BF00D0064001480221FFF7CEBFE8
:104A400000C0064001480121FFF7C8BF00B0064082
:104A500001480021FFF7C2BF00A006400C4B1F22F7
:104A600013B51A600B4B5C687CB10B4B1B68ADF83F
:104A7000043000238DF8063001238DF80730FFF74E
:104A8000A5FE01A8A047FFF7A9FE02B010BD00BF18
:104A900000B00B40040BFF1F10B00B400C4B1F224B
:104AA00013B51A600B4B1C687CB10B4B1B68ADF83F
:104AB000043000238DF8063001238DF80730FFF70E
:104AC00085FE01A8A047FFF789FE02B010BD00BF18
:104AD00000B00340040BFF1F10B00340094A1368E5
:104AE00023F4803323F0410310B51360064B1C6898
:104AF00034B1FFF76BFEA047BDE81040FFF76EBE74
:104B000010BD00BF00600340000BFF1F03782DE9BC
:104B1000F04107460D4603F0FF0613B3012434426B
:104B20001AD00F2D26EA04060ADD0122A5F1100392
:104B300002FA03F3934204D10B4B1A681A6000E0A7
:104B40003C700A4B53F82580B8F1000F04D0FFF7F2
:104B50003DFEC047FFF742FE64000135E4B2002E7F
:104B6000DDD1BDE8F08100BF000004405807FF1F01
:104B700008B507480021FFF7C9FF06480821FFF7DD
:104B8000C5FF05481021BDE80840FFF7BFBF00BFC3
:104B900005C0074006C0074007C007402DE9F041A7
:104BA000104B1C681F46D4B10F4E1C6001252542D6
:104BB00010D0D6F80080FFF709FE0C4B08F430281F
:104BC000F3589847B8F5002F08BF3D6024EA050464
:104BD000FFF704FE6D000436002CE8D1E0E7BDE8E5
:104BE000F08100BFA0D0044000D004400C3AFADFAE
:104BF0002DE9F041104B1C681F46D4B10F4E1C60CC
:104C00000125254210D0D6F80080FFF7DFFD0C4BC0
:104C100008F43028F3589847B8F5002F08BF3D60D6
:104C200024EA0504FFF7DAFD6D000436002CE8D114
:104C3000E0E7BDE8F08100BFA0C0044000C0044030
:104C40008C49FADF2DE9F041104B1C681F46D4B1A6
:104C50000F4E1C600125254210D0D6F80080FFF7CA
:104C6000B5FD0C4B08F43028F3589847B8F5002FE1
:104C700008BF3D6024EA0504FFF7B0FD6D0004366F
:104C8000002CE8D1E0E7BDE8F08100BFA0B004400F
:104C900000B004400C59FADF2DE9F041104B1C68BC
:104CA0001F46D4B10F4E1C600125254210D0D6F806
:104CB0000080FFF78BFD0C4B08F43028F358984721
:104CC000B8F5002F08BF3D6024EA0504FFF786FD14
:104CD0006D000436002CE8D1E0E7BDE8F08100BFAC
:104CE000A0A0044000A004408C68FADF2DE9F04148
:104CF000104B1C681F46D4B10F4E1C600125254285
:104D000010D0D6F80080FFF761FD0C4B08F4302876
:104D1000F3589847B8F5002F08BF3D6024EA050412
:104D2000FFF75CFD6D000436002CE8D1E0E7BDE83C
:104D3000F08100BFA0900440009004400C78FADF9E
:104D400010B50446FFF742FD0D4B1B681B0212D540
:104D50000C4B2201134400229A600B4B64001A781A
:104D60000320A04022EA0000187020B9074B02225D
:104D70001A60074B1860BDE81040FFF72FBD00BF59
:104D80003C80044000710340F80AFF1F007003409C
:104D9000DC0790420D4B020110B513440122DA608A
:104DA00000FA02F302229A40094B1B781A42044689
:104DB00001D1FFF7C5FFFFF709FD064B53F824307B
:104DC0009847BDE81040FFF709BD00BF00710340E0
:104DD000F80AFF1FE006FF1F0320FFF7DBBF0220DA
:104DE000FFF7D8BF0120FFF7D5BF0020FFF7D2BFE4
:104DF00038B50E4CFFF7EAFC236823F0200323604C
:104E0000FFF7ECFC0520FEF761FB2568AB060BD431
:104E100045F02005FFF7DAFC2560FFF7DFFC044BC7
:104E20009A6842F480029A6038BD00BFD00AFF1F22
:104E300000400C4038B5184D6C68AB6823409A02AE
:104E40000AD5164AEB68507905211840FEF7F4FAA6
:104E50006C68230348BF6C600F4B9A6802F4000231
:104E600022421D4602D00520FEF730FBAA680A4BFD
:104E700002F4800222420ED09A6822F480029A60E4
:104E8000FFF7A4FC064B1A6822F020021A60BDE866
:104E90003840FFF7A3BC38BD00400C40980AFF1F04
:104EA000D00AFF1F2DE9F84F1E463D4B3D4D1746DA
:104EB0004FF00C091A6809FB00F94A44AA6092688D
:104EC00012F0400F044688469B4605D106F11003B8
:104ED0006B6006F1140304E006F118036B6006F141
:104EE0001C03DFF8C0A0EB60FFF770FC4046796858
:104EF00022465346FEF760FF0328804606D004286A
:104F000019D001282ED1FFF769FC46E0DAF8083005
:104F1000DAF804105A6842F080020A605A6882F097
:104F200040025A609A6882F040029A603B6843F0FF
:104F300080033B602DE034B984233361B3612046A4
:104F4000082122460CE000212046FFF727FA164BE5
:104F50001B6803EB401384221A619A610821002226
:104F6000FFF70EFADBF8002002EB090399680F4BFC
:104F70000B4029680B432B6034B9D90004D583F06A
:104F8000400141F0800101E043F08001396042F8C6
:104F90000930FFF723FC4FF000084046BDE8F88FCA
:104FA0003007FF1FA00AFF1F3C07FF1F0800FF0379
:104FB0002DE9F843B44EB54D33782C781C4000F001
:104FC000968134F0080800F08D80FFF7FFFBE307BF
:104FD0004AD573232B70AE4BAE481A7842F00202CA
:104FE0001A70327802F0CF023270AB4A12689168C0
:104FF00021F040019160802111601A78A74902F0E8
:10500000FD021A70A64A0023137001220A70A54AF5
:1050100013701371137103700371037203730374BC
:10502000037503760377137182F8303082F83430D9
:1050300082F838300B7803F0040303F0FF07002BED
:10504000F8D1994B994A1B68DFF86C929A6040320C
:105050001A6005203A464B463946FEF7ADFE8F4BA7
:1050600089F816700D221A70A70719D5904B1A7877
:10507000D00603D58F4A9168013191601A785107A3
:1050800003D58C4A5168013151601A78920703D5D3
:10509000884A11680131116016221A7002232B70A0
:1050A000E3060BD530232B703378002143F0200327
:1050B000337006200A46804BFEF77EFEA7060BD50E
:1050C00030232B703378002103F0DF033370072087
:1050D0000A46794BFEF770FE5FFA88F8FFF77EFB11
:1050E00085F8008024077FF565AFDFF8D8E16E4BC7
:1050F0009EF800609EF800201868654F6E4C3609D7
:1051000031B212F0080F00EB411313D03A781007B8
:1051100000F1DA80604A126801EB410102EB810183
:10512000A1608A68510600F1CF8003F1100262602D
:105130001433CDE0226802F0805CC4F800C09EF811
:10514000002052070BD597F800E01EF0080F03F17E
:10515000080207D14CF0400CC4F800C002E097F8F8
:1051600000E01A4602F1040CC4F810C0D2F800C0E6
:10517000DFF844E1CCF30948A4F814800CF03C04B7
:10518000042C02D0342C2AD072E0434F386801EB53
:10519000410400EB840E8900DEF808E01EF0080FE1
:1051A0001CBF50F8240000F080083C48415C08BF58
:1051B0004FF08008C90630464CBF03210121FFF79C
:1051C00071FE3B6853F82420B8F1000F02D022F0A2
:1051D000800201E042F0800243F8242050E00024E5
:1051E0001C619C61DEF80040DFF8ACC014F04008A0
:1051F00011D1DCF8004001EB410904EB89092F4C87
:10520000D9F8089009EA0404046044F0C0048460FA
:10521000CEF8008011E0DCF8004001EB410804EB1F
:105220008804D4F80880254C08EA0404846044F01B
:10523000C00404602248CEF8000001EB4104DCF811
:10524000001001EB84014820486030460221FFF73E
:1052500029FE012807D0104B1B6853F8242042F088
:10526000800243F824203B7803F0DF033B7007E023
:1052700084221A619A61304608210022FFF780F8E3
:1052800008232B7096E600BF84200740802007404B
:1052900094200740D02007403007FF1FC020074060
:1052A00098200740C42007403C07FF1F88004000AB
:1052B000882007408C0AFF1FA00AFF1F0800FF0379
:1052C000400000109020074003F1180262601C3378
:1052D000E360FFF77BFA3246064B00210420FEF71D
:1052E0006BFDFFF77BFA044BA27D1A70C8E7BDE89F
:1052F000F88300BFA00AFF1F98200740104B1B68CF
:105300004033090143F8202000F1604303F5644372
:10531000C9B2197020220B4B90FBF2F292000340AD
:1053200002F16042002B02F5614203DA013B63F0B7
:105330001F030133012101FA03F31360704700BF1B
:1053400008ED00E01F0000802DE9F047394D3A4B91
:1053500055F820600A22C3F8A8214FF0FF32044616
:105360000F46C3F8AC21002E49D1C8014FF40061AB
:10537000FDF70AFC45F824004FEA4708464513DAD2
:1053800055F8243020204FEA8619014603EB090A1C
:10539000FDF7FAFB55F82430CAF830004B440122DF
:1053A0001B6B16441A60E9E74020FDF7C5FB00F5CA
:1053B000805255F824302149186122F47F6222F08E
:1053C0000F025A614FF480025A639A631A6B5A6053
:1053D000D960D06100211A46414507DA4FF48100B7
:1053E00010600120906001444032F5E7124A4FF00E
:1053F000C011C2F8C01112490F55C2F85831114BF3
:105400000D4D302202FB04340126E56184F82C6046
:105410005D200D210C4AFFF771FF4723C5F8483185
:10542000C5F84061D5F8B0313343C5F8B031BDE8B7
:10543000F08700BFC007FF1F00100A4080804000B7
:10544000BC07FF1FC407FF1F115D000070B50528D2
:1054500000F2A280DFE800F01A344D667F0341B10C
:10546000012940F099804D4B40F2035219604C4B9A
:1054700005E04A4B01221A604A4B40F203520024D5
:105480001A602546484A072156267CE059B1012971
:1054900040F08280454B464D1960464B40F2033246
:1054A0001A60072408E0414B01221A60424B40F287
:1054B00003321A600C460D46404A0C211F2662E05A
:1054C00051B1012968D1354B3D4D19603D4B40F23A
:1054D00003321A60072408E0304B01221A603A4B6D
:1054E00040F203321A600C460D46384A0B21212641
:1054F00049E051B101294FD1354B364D1960364B3A
:1055000040F203321A60072408E0314B01221A608E
:10551000324B40F203321A600C460D46304A0A21E3
:10552000232630E051B1012936D12E4B2E4D196082
:105530002E4B40F203321A60072408E0294B012267
:105540001A602B4B40F203321A600C460D46294A72
:105550000921252617E051B101291DD10F4B264DF8
:105560001960264B40F203321A60072408E00B4B07
:1055700001221A60224B40F203321A600C460D469B
:10558000204A082142263046FFF7B8FE25B1701C9C
:1055900021462A46FFF7B2FE002070BD3407904234
:1055A00024D0044020D00440354E0000240790420F
:1055B0004D4400003C90044038900440BD49000038
:1055C0006D44000004D0044000D004409D49000018
:1055D000300790428D44000008C004400CC00440D5
:1055E0007D4900002C079042AD44000040B00440CB
:1055F00044B004405D490000CD44000064D0044044
:1056000060D004403D490000084B094ADA63094A6A
:10561000094B13605360094B1A6842F070421A60DC
:10562000A3F5516307221A60704700BF0000FF1FF7
:10563000F147000014E000E07F8D5B0020ED00E00A
:1056400008B5094B1B88DB070AD5FFF7BFF8074BE6
:105650004AF202621A804BF280421A80FFF7BEF8CB
:10566000034B20221A6008BD002005400C20054095
:105670008CF00F402DE9F843099D4401074604F1E1
:1056800080446806894690460A9905F0070604F5A5
:10569000104405D50022A280A282E260A26116E039
:1056A00015F4005CC2F1000203D0A680A682A261BC
:1056B00007E015F0200006D0A680A4F814C0C4F8B6
:1056C00018C0E26003E0A080A682A261E060022E22
:1056D00005D0042E06D00022E280012605E040F22B
:1056E000011201E040F20222E2802360284B43F8DD
:1056F000271069B1E9064CBF06230223A383254B7B
:105700009DF82C1053F827203846FFF7F7FD00E0EE
:10571000A183EA0504D5A38B9BB243F00803A383BE
:10572000089B2361AB0516D501236805E382C4F805
:10573000088029D52905A38326D503FA07F7A38B6B
:105740001A0621D4144B1A681742F8D01F604FF084
:10575000FF30BDE8F883EB0404D50123C4F80880CA
:10576000E38204E0A660B8FBF6F6B6B2E682E38A0E
:10577000E38307F18047094B07F50437012269F0FD
:105780007F091A6087F800900020BDE8F88300BF09
:10579000F006FF1F509600002C80004084079042C6
:1057A0000E2AF0B501D800234AE0294C294DE38A9E
:1057B0009BB2002B14BF2B462346DC8AA4B2002CDC
:1057C000F1D10546841811F00307C5EB040404D099
:1057D00011F8014B05F8014BF4E7012215F0030F16
:1057E0002646DA820FD015F0010F03D09A82DF80AF
:1057F0009A800AE002229A829A8040F2011224F0F2
:105800000104DA8001E024F00304012219601D6123
:1058100021449C6025449A83341B9A8B1206FCD544
:105820000022A24203D08E5CAE540132F9E740F26E
:105830000222DA8004229A829A800022DA82F0BD63
:10584000934203D0CC5CC4540133F9E7F0BD00BFF0
:10585000E0910040C09100400E2AF7B5C9B2024461
:1058600001D8034634E01E4C1E4DE38A9BB2002B48
:1058700014BF2B462346DC8AA4B2002CF1D10C04C1
:1058800044EA01240C4344EA01640194044614F000
:105890000307C4EB020502D021700134F7E70126AB
:1058A000DE8225F003029F8001AF1F601C619A60B9
:1058B00022449E832C44A24202D011700132FAE7A6
:1058C0009A8B1206FCD504229A800022DA8204E028
:1058D000934202D019700133FAE703B0F0BD00BF64
:1058E000E0910040C0910040134B20F0800210B5C1
:1058F0001C685101000604EB010313D50F48104941
:1059000000680C2404FB0200446824F04004446056
:1059100000201861986111F8223023F0020301F889
:10592000223010BD625822F0040262509A6822F0C0
:1059300004029A6010BD00BF3C07FF1F3007FF1F25
:10594000C020074008B549B101290AD001310BD167
:1059500000210C220548FFF77FFF05E0034B186884
:1059600008BD024B586808BD002008BD8C0AFF1F07
:105970001C4B2DE9F3411D681B4B04B205EB44158C
:1059800004EB4404A4001A68125912F0400F0CBF33
:10599000083500262A6808BF402612F0800798467E
:1059A0001AD1124B00936968C2F309420123FEF732
:1059B0004BF9012812D0D8F800301A1938469168EE
:1059C0000B4A0A4032431E5906F0800642F080011D
:1059D000324329601A5102E0012000E0022002B0A7
:1059E000BDE8F0813C07FF1F3007FF1FA00AFF1F23
:1059F0000800FF032DE9F04F9C69D3F81C80236C4D
:105A000013F0404F87B007460D46914600F087805F
:105A1000DFF864A231B10023CAF82430AAF82010BC
:105A20004D087CE0DAF82420BAF820C0236C002A64
:105A300039D14FEA5C063744C3F30A4B07F580536C
:105A4000256F23F47F6323F00F03AF60EB606A6080
:105A5000206C5B4600F0404029463246FEF7BCFD14
:105A600005906B68301A43F0800343EA0040686099
:105A7000059B63B1216C05AB8DE80808284601F051
:105A800040413A463346FEF7D7FD0546F0E72B681E
:105A900023F001032B60CAF828306B6843F40043FD
:105AA0006B60012338E0C3F30A43039300F580538E
:105AB000DAF8286023F47F6323F00F03B060F3600B
:105AC0007160206C039B4FEA5C0B00F04040314654
:105AD0005A46FEF781FD05907368C0EB0B0043F05A
:105AE000800343EA00407060059B6BB1216C05ABFD
:105AF0000093039B0193304601F040413A465B46D8
:105B0000FEF79AFD0646EFE7326822F001023260A6
:105B1000726842F400427260CAF8243096E007F5D9
:105B2000805323F47F6323F00F03276563652B0401
:105B300043F4004343F08003E364236C13F0404FCD
:105B400000F08280266C206CC6F30A46334600F0D3
:105B5000404004F148012A46FEF73EFD0346059009
:105B6000002830D0E26C206F22F07F5222F47E12A7
:105B7000E264E26CEB1A42EA0343E364059B53B12F
:105B8000216C05AB8DE8480001F040413A462B46B8
:105B9000FEF752FDF2E7436843F400434360059586
:105BA000059B53B1216C05AB8DE8480001F04041E5
:105BB0007A192B46FEF740FDF2E7436843F40043B1
:105BC0004360236F03602848FCF72CFE002504EB9C
:105BD00085032C21186C0135FCF70DFFA90702D1B4
:105BE0002248FCF71FFE102DF1D12148276FFCF74A
:105BF00019FE002557F825002C210135FCF7FBFE86
:105C0000AA0702D11948FCF70DFE082DF2D13D4636
:105C10002D682E6816F0010601D1AF4203D1154858
:105C2000FCF700FE10E01248FCF7FCFD55F82600DA
:105C30002C210136FCF7DFFEB30702D10B48FCF73D
:105C4000F1FD082EF2D1E3E7236F6364D8F8B021A9
:105C50004FF4803303FA09F949EA0203C8F8B03176
:105C600007B0BDE8F08F00BFE59700003A83000061
:105C7000F5970000FC970000C407FF1FF8B5234DFF
:105C8000164604460F46FEF7A1FD31463846224629
:105C90002B46FEF791F80328064606D004280BD0C1
:105CA000012826D1FEF79AFD2DE00020014622466C
:105CB0002B46FFF79FFE1CE054B9EB69D3F8C021D7
:105CC00042F48032C3F8C0212046082122460EE06B
:105CD00000212046FEF762FBEB6903F5E07300222A
:105CE00053F8201041F4803143F820100821FEF7CA
:105CF00047FB022F04D0A88AA9692246FEF7DCFCE4
:105D0000FEF76CFD00263046F8BD00BFC407FF1F3C
:105D10002DE9F347B04BD3F84821D3F8445115404F
:105D200000F057816806C3F844516FD5D3F8587115
:105D300017BBA94BA94C4FF0C012C3F8C021D3F830
:105D4000AC21C3F8AC21D3F8BC21C3F8BC21D3F8F3
:105D5000846116F4807641D1D3F8402122F001020B
:105D6000C3F840210222C3F840219D4B30461978E8
:105D7000FFF7EAFA267033E0974BD3F8B031002BE7
:105D8000FAD1974A4FF4803492F800E001201A4685
:105D9000944996007245314407EBC2161ADAD1F8DD
:105DA00000C02CF08C1CC1F800C0F1680906F16C31
:105DB00048BF03430E0648BF23434000640001323E
:105DC000E6E7D2F8B431002BFBD1834BD3F8B831DE
:105DD000002BAED0804AC2F8B431F2E70123237021
:105DE0007D4B814ED3F84821002422F48072C3F801
:105DF0004821C3F85441FEF7E9FC0520214622461C
:105E00003346FDF7D9FFB475FEF7E8FC774B1A6807
:105E100098461AB128468C21FCF7EDFDEC0703D417
:105E2000680700F1A980C1E06B4BD3F8AC61002793
:105E30000124002E3FD026423AD0674A6A4BD2F85E
:105E4000581101EBC71199619A46C2F8AC41DFF8CD
:105E50008891DAF81810D9F8403143F40053C9F8A2
:105E60004031684628310822FFF79AFCD9F84031C2
:105E700013F4005F4B46EAD0D3F8402122F40052DD
:105E8000C3F84021584A08219182D3F8AC11524AF4
:105E90000E42FAD1D2F8B0110123BB400B43C2F835
:105EA000B031384602216A46FFF7E8FE26EA0406CA
:105EB00001376400BDE7484BD3F8BC41C3F8BC418F
:105EC0000127A3B203B33C421BD0434B4649D3F84E
